:020000000C945E
:1000020034000C9400000C9400000C9400000C943A
:1000120000000C9400000C9400000C9400000C945E
:1000220000000C9400000C9400000C9400000C944E
:1000320000000C9400000C9400000C9400000C943E
:1000420000000C9400000C9400000C9400000C942E
:1000520000000C9400000C9400000C9400000C941E
:1000620000000C940000F894EE27EFBBF1E0F5BF1E
:10007200E5BFEFEFEDBFE8E0EEBFC0E0D3E00C94E8
:100082004200219AE1E8E0938000E1E0E093810000
:10009200E0E0E0938900E9B1E0938800F9CFFFCF77
:00000001FF
